{
  "_format": "hh-sol-artifact-1",
  "contractName": "Share",
  "sourceName": "contracts/Share.sol",
  "abi": [
    {
      "inputs": [
        {
          "internalType": "address",
          "name": "user",
          "type": "address"
        },
        {
          "internalType": "string",
          "name": "name",
          "type": "string"
        }
      ],
      "name": "addFriend",
      "outputs": [],
      "stateMutability": "nonpayable",
      "type": "function"
    },
    {
      "inputs": [
        {
          "internalType": "address",
          "name": "user",
          "type": "address"
        },
        {
          "internalType": "string",
          "name": "fileHash",
          "type": "string"
        }
      ],
      "name": "deleteFile",
      "outputs": [],
      "stateMutability": "nonpayable",
      "type": "function"
    },
    {
      "inputs": [
        {
          "internalType": "address",
          "name": "user",
          "type": "address"
        }
      ],
      "name": "deleteFriend",
      "outputs": [],
      "stateMutability": "nonpayable",
      "type": "function"
    },
    {
      "inputs": [
        {
          "internalType": "address",
          "name": "user",
          "type": "address"
        }
      ],
      "name": "getFiles",
      "outputs": [
        {
          "components": [
            {
              "internalType": "string",
              "name": "name",
              "type": "string"
            },
            {
              "internalType": "string",
              "name": "IpfsHash",
              "type": "string"
            }
          ],
          "internalType": "struct Share.File[]",
          "name": "",
          "type": "tuple[]"
        }
      ],
      "stateMutability": "view",
      "type": "function"
    },
    {
      "inputs": [],
      "name": "getFriends",
      "outputs": [
        {
          "components": [
            {
              "internalType": "string",
              "name": "name",
              "type": "string"
            },
            {
              "internalType": "address",
              "name": "address_",
              "type": "address"
            }
          ],
          "internalType": "struct Share.Friend[]",
          "name": "",
          "type": "tuple[]"
        }
      ],
      "stateMutability": "view",
      "type": "function"
    },
    {
      "inputs": [
        {
          "internalType": "address",
          "name": "user",
          "type": "address"
        },
        {
          "internalType": "string",
          "name": "name",
          "type": "string"
        },
        {
          "internalType": "string",
          "name": "hash",
          "type": "string"
        }
      ],
      "name": "shareFile",
      "outputs": [],
      "stateMutability": "nonpayable",
      "type": "function"
    },
    {
      "inputs": [
        {
          "internalType": "address",
          "name": "user",
          "type": "address"
        }
      ],
      "name": "sharedFiles",
      "outputs": [
        {
          "components": [
            {
              "internalType": "string",
              "name": "name",
              "type": "string"
            },
            {
              "internalType": "string",
              "name": "IpfsHash",
              "type": "string"
            }
          ],
          "internalType": "struct Share.File[]",
          "name": "",
          "type": "tuple[]"
        }
      ],
      "stateMutability": "view",
      "type": "function"
    }
  ],
  "bytecode": "0x608060405234801561001057600080fd5b50611d15806100206000396000f3fe608060405234801561001057600080fd5b506004361061007d5760003560e01c8063433bf37b1161005b578063433bf37b146100d85780639325df2614610108578063d72c152214610124578063f76a961a146101545761007d565b8063101f5106146100825780631f8f72701461009e5780633b9f708d146100bc575b600080fd5b61009c600480360381019061009791906112e3565b610170565b005b6100a6610422565b6040516100b391906114cc565b60405180910390f35b6100d660048036038101906100d191906112e3565b6105a6565b005b6100f260048036038101906100ed91906114ee565b6107e7565b6040516100ff9190611621565b60405180910390f35b610122600480360381019061011d91906114ee565b6109e5565b005b61013e600480360381019061013991906114ee565b610d2b565b60405161014b9190611621565b60405180910390f35b61016e60048036038101906101699190611643565b610f29565b005b60008060003373ffffffffffffffffffffffffffffffffffffffff1673ffffffffffffffffffffffffffffffffffffffff16815260200190815260200160002060008473ffffffffffffffffffffffffffffffffffffffff1673ffffffffffffffffffffffffffffffffffffffff16815260200190815260200160002090506000805b82805490508110156102c757828181548110610212576102116116ce565b5b9060005260206000209060020201600101805461022e9061172c565b905084511480156102ad575082818154811061024d5761024c6116ce565b5b906000526020600020906002020160010160405160200161026e9190611800565b60405160208183030381529060405280519060200120846040516020016102959190611848565b60405160208183030381529060405280519060200120145b156102ba578091506102c7565b80806001019150506101f3565b5081600183805490506102da9190611898565b815481106102eb576102ea6116ce565b5b906000526020600020906002020182828154811061030c5761030b6116ce565b5b90600052602060002090600202016000820181600001908161032e9190611a79565b50600182018160010190816103439190611a79565b509050508180548061035857610357611b61565b5b60019003818190600052602060002090600202016000808201600061037d9190611015565b60018201600061038d9190611015565b50509055816000803373ffffffffffffffffffffffffffffffffffffffff1673ffffffffffffffffffffffffffffffffffffffff16815260200190815260200160002060008673ffffffffffffffffffffffffffffffffffffffff1673ffffffffffffffffffffffffffffffffffffffff16815260200190815260200160002090805461041b929190611055565b5050505050565b6060600160003373ffffffffffffffffffffffffffffffffffffffff1673ffffffffffffffffffffffffffffffffffffffff168152602001908152602001600020805480602002602001604051908101604052809291908181526020016000905b8282101561059d57838290600052602060002090600202016040518060400160405290816000820180546104b69061172c565b80601f01602080910402602001604051908101604052809291908181526020018280546104e29061172c565b801561052f5780601f106105045761010080835404028352916020019161052f565b820191906000526020600020905b81548152906001019060200180831161051257829003601f168201915b505050505081526020016001820160009054906101000a900473ffffffffffffffffffffffffffffffffffffffff1673ffffffffffffffffffffffffffffffffffffffff1673ffffffffffffffffffffffffffffffffffffffff168152505081526020019060010190610483565b50505050905090565b60005b600160003373ffffffffffffffffffffffffffffffffffffffff1673ffffffffffffffffffffffffffffffffffffffff168152602001908152602001600020805490508110156106f0578273ffffffffffffffffffffffffffffffffffffffff16600160003373ffffffffffffffffffffffffffffffffffffffff1673ffffffffffffffffffffffffffffffffffffffff168152602001908152602001600020828154811061065b5761065a6116ce565b5b906000526020600020906002020160010160009054906101000a900473ffffffffffffffffffffffffffffffffffffffff1673ffffffffffffffffffffffffffffffffffffffff16036106e3576040517f08c379a00000000000000000000000000000000000000000000000000000000081526004016106da90611bed565b60405180910390fd5b80806001019150506105a9565b50600160003373ffffffffffffffffffffffffffffffffffffffff1673ffffffffffffffffffffffffffffffffffffffff16815260200190815260200160002060405180604001604052808381526020018473ffffffffffffffffffffffffffffffffffffffff16815250908060018154018082558091505060019003906000526020600020906002020160009091909190915060008201518160000190816107999190611c0d565b5060208201518160010160006101000a81548173ffffffffffffffffffffffffffffffffffffffff021916908373ffffffffffffffffffffffffffffffffffffffff16021790555050505050565b60606000808373ffffffffffffffffffffffffffffffffffffffff1673ffffffffffffffffffffffffffffffffffffffff16815260200190815260200160002060003373ffffffffffffffffffffffffffffffffffffffff1673ffffffffffffffffffffffffffffffffffffffff168152602001908152602001600020805480602002602001604051908101604052809291908181526020016000905b828210156109da57838290600052602060002090600202016040518060400160405290816000820180546108b79061172c565b80601f01602080910402602001604051908101604052809291908181526020018280546108e39061172c565b80156109305780601f1061090557610100808354040283529160200191610930565b820191906000526020600020905b81548152906001019060200180831161091357829003601f168201915b505050505081526020016001820180546109499061172c565b80601f01602080910402602001604051908101604052809291908181526020018280546109759061172c565b80156109c25780601f10610997576101008083540402835291602001916109c2565b820191906000526020600020905b8154815290600101906020018083116109a557829003601f168201915b50505050508152505081526020019060010190610884565b505050509050919050565b6000805b600160003373ffffffffffffffffffffffffffffffffffffffff1673ffffffffffffffffffffffffffffffffffffffff16815260200190815260200160002080549050811015610afd57600160003373ffffffffffffffffffffffffffffffffffffffff1673ffffffffffffffffffffffffffffffffffffffff1681526020019081526020016000208181548110610a8457610a836116ce565b5b906000526020600020906002020160010160009054906101000a900473ffffffffffffffffffffffffffffffffffffffff1673ffffffffffffffffffffffffffffffffffffffff168373ffffffffffffffffffffffffffffffffffffffff1603610af057809150610afd565b80806001019150506109e9565b50600160003373ffffffffffffffffffffffffffffffffffffffff1673ffffffffffffffffffffffffffffffffffffffff16815260200190815260200160002060018060003373ffffffffffffffffffffffffffffffffffffffff1673ffffffffffffffffffffffffffffffffffffffff16815260200190815260200160002080549050610b8b9190611898565b81548110610b9c57610b9b6116ce565b5b9060005260206000209060020201600160003373ffffffffffffffffffffffffffffffffffffffff1673ffffffffffffffffffffffffffffffffffffffff1681526020019081526020016000208281548110610bfb57610bfa6116ce565b5b906000526020600020906002020160008201816000019081610c1d9190611a79565b506001820160009054906101000a900473ffffffffffffffffffffffffffffffffffffffff168160010160006101000a81548173ffffffffffffffffffffffffffffffffffffffff021916908373ffffffffffffffffffffffffffffffffffffffff160217905550905050600160003373ffffffffffffffffffffffffffffffffffffffff1673ffffffffffffffffffffffffffffffffffffffff168152602001908152602001600020805480610cd757610cd6611b61565b5b600190038181906000526020600020906002020160008082016000610cfc9190611015565b6001820160006101000a81549073ffffffffffffffffffffffffffffffffffffffff0219169055505090555050565b60606000803373ffffffffffffffffffffffffffffffffffffffff1673ffffffffffffffffffffffffffffffffffffffff16815260200190815260200160002060008373ffffffffffffffffffffffffffffffffffffffff1673ffffffffffffffffffffffffffffffffffffffff168152602001908152602001600020805480602002602001604051908101604052809291908181526020016000905b82821015610f1e5783829060005260206000209060020201604051806040016040529081600082018054610dfb9061172c565b80601f0160208091040260200160405190810160405280929190818152602001828054610e279061172c565b8015610e745780601f10610e4957610100808354040283529160200191610e74565b820191906000526020600020905b815481529060010190602001808311610e5757829003601f168201915b50505050508152602001600182018054610e8d9061172c565b80601f0160208091040260200160405190810160405280929190818152602001828054610eb99061172c565b8015610f065780601f10610edb57610100808354040283529160200191610f06565b820191906000526020600020905b815481529060010190602001808311610ee957829003601f168201915b50505050508152505081526020019060010190610dc8565b505050509050919050565b6000803373ffffffffffffffffffffffffffffffffffffffff1673ffffffffffffffffffffffffffffffffffffffff16815260200190815260200160002060008473ffffffffffffffffffffffffffffffffffffffff1673ffffffffffffffffffffffffffffffffffffffff16815260200190815260200160002060405180604001604052808481526020018381525090806001815401808255809150506001900390600052602060002090600202016000909190919091506000820151816000019081610ff79190611c0d565b50602082015181600101908161100d9190611c0d565b505050505050565b5080546110219061172c565b6000825580601f106110335750611052565b601f01602090049060005260206000209081019061105191906110d7565b5b50565b8280548282559060005260206000209060020281019282156110c65760005260206000209160020282015b828111156110c55782826000820181600001908161109e9190611a79565b50600182018160010190816110b39190611a79565b50505091600201919060020190611080565b5b5090506110d391906110f4565b5090565b5b808211156110f05760008160009055506001016110d8565b5090565b5b80821115611127576000808201600061110e9190611015565b60018201600061111e9190611015565b506002016110f5565b5090565b6000604051905090565b600080fd5b600080fd5b600073ffffffffffffffffffffffffffffffffffffffff82169050919050565b600061116a8261113f565b9050919050565b61117a8161115f565b811461118557600080fd5b50565b60008135905061119781611171565b92915050565b600080fd5b600080fd5b6000601f19601f8301169050919050565b7f4e487b7100000000000000000000000000000000000000000000000000000000600052604160045260246000fd5b6111f0826111a7565b810181811067ffffffffffffffff8211171561120f5761120e6111b8565b5b80604052505050565b600061122261112b565b905061122e82826111e7565b919050565b600067ffffffffffffffff82111561124e5761124d6111b8565b5b611257826111a7565b9050602081019050919050565b82818337600083830152505050565b600061128661128184611233565b611218565b9050828152602081018484840111156112a2576112a16111a2565b5b6112ad848285611264565b509392505050565b600082601f8301126112ca576112c961119d565b5b81356112da848260208601611273565b91505092915050565b600080604083850312156112fa576112f9611135565b5b600061130885828601611188565b925050602083013567ffffffffffffffff8111156113295761132861113a565b5b611335858286016112b5565b9150509250929050565b600081519050919050565b600082825260208201905092915050565b6000819050602082019050919050565b600081519050919050565b600082825260208201905092915050565b60005b838110156113a557808201518184015260208101905061138a565b60008484015250505050565b60006113bc8261136b565b6113c68185611376565b93506113d6818560208601611387565b6113df816111a7565b840191505092915050565b6113f38161115f565b82525050565b6000604083016000830151848203600086015261141682826113b1565b915050602083015161142b60208601826113ea565b508091505092915050565b600061144283836113f9565b905092915050565b6000602082019050919050565b60006114628261133f565b61146c818561134a565b93508360208202850161147e8561135b565b8060005b858110156114ba578484038952815161149b8582611436565b94506114a68361144a565b925060208a01995050600181019050611482565b50829750879550505050505092915050565b600060208201905081810360008301526114e68184611457565b905092915050565b60006020828403121561150457611503611135565b5b600061151284828501611188565b91505092915050565b600081519050919050565b600082825260208201905092915050565b6000819050602082019050919050565b6000604083016000830151848203600086015261156482826113b1565b9150506020830151848203602086015261157e82826113b1565b9150508091505092915050565b60006115978383611547565b905092915050565b6000602082019050919050565b60006115b78261151b565b6115c18185611526565b9350836020820285016115d385611537565b8060005b8581101561160f57848403895281516115f0858261158b565b94506115fb8361159f565b925060208a019950506001810190506115d7565b50829750879550505050505092915050565b6000602082019050818103600083015261163b81846115ac565b905092915050565b60008060006060848603121561165c5761165b611135565b5b600061166a86828701611188565b935050602084013567ffffffffffffffff81111561168b5761168a61113a565b5b611697868287016112b5565b925050604084013567ffffffffffffffff8111156116b8576116b761113a565b5b6116c4868287016112b5565b9150509250925092565b7f4e487b7100000000000000000000000000000000000000000000000000000000600052603260045260246000fd5b7f4e487b7100000000000000000000000000000000000000000000000000000000600052602260045260246000fd5b6000600282049050600182168061174457607f821691505b602082108103611757576117566116fd565b5b50919050565b600081905092915050565b60008190508160005260206000209050919050565b6000815461178a8161172c565b611794818661175d565b945060018216600081146117af57600181146117c4576117f7565b60ff19831686528115158202860193506117f7565b6117cd85611768565b60005b838110156117ef578154818901526001820191506020810190506117d0565b838801955050505b50505092915050565b600061180c828461177d565b915081905092915050565b60006118228261136b565b61182c818561175d565b935061183c818560208601611387565b80840191505092915050565b60006118548284611817565b915081905092915050565b6000819050919050565b7f4e487b7100000000000000000000000000000000000000000000000000000000600052601160045260246000fd5b60006118a38261185f565b91506118ae8361185f565b92508282039050818111156118c6576118c5611869565b5b92915050565b6000815490506118db8161172c565b9050919050565b60006020601f8301049050919050565b600082821b905092915050565b60006008830261192f7fffffffffffffffffffffffffffffffffffffffffffffffffffffffffffffffff826118f2565b61193986836118f2565b95508019841693508086168417925050509392505050565b6000819050919050565b600061197661197161196c8461185f565b611951565b61185f565b9050919050565b6000819050919050565b6119908361195b565b6119a461199c8261197d565b8484546118ff565b825550505050565b600090565b6119b96119ac565b6119c4818484611987565b505050565b5b818110156119e8576119dd6000826119b1565b6001810190506119ca565b5050565b601f821115611a2d576119fe81611768565b611a07846118e2565b81016020851015611a16578190505b611a2a611a22856118e2565b8301826119c9565b50505b505050565b600082821c905092915050565b6000611a5060001984600802611a32565b1980831691505092915050565b6000611a698383611a3f565b9150826002028217905092915050565b818103611a87575050611b5f565b611a90826118cc565b67ffffffffffffffff811115611aa957611aa86111b8565b5b611ab3825461172c565b611abe8282856119ec565b6000601f831160018114611aed5760008415611adb578287015490505b611ae58582611a5d565b865550611b58565b601f198416611afb87611768565b9650611b0686611768565b60005b82811015611b2e57848901548255600182019150600185019450602081019050611b09565b86831015611b4b5784890154611b47601f891682611a3f565b8355505b6001600288020188555050505b5050505050505b565b7f4e487b7100000000000000000000000000000000000000000000000000000000600052603160045260246000fd5b600082825260208201905092915050565b7f416c726561647920467269656e64000000000000000000000000000000000000600082015250565b6000611bd7600e83611b90565b9150611be282611ba1565b602082019050919050565b60006020820190508181036000830152611c0681611bca565b9050919050565b611c168261136b565b67ffffffffffffffff811115611c2f57611c2e6111b8565b5b611c39825461172c565b611c448282856119ec565b600060209050601f831160018114611c775760008415611c65578287015190505b611c6f8582611a5d565b865550611cd7565b601f198416611c8586611768565b60005b82811015611cad57848901518255600182019150602085019450602081019050611c88565b86831015611cca5784890151611cc6601f891682611a3f565b8355505b6001600288020188555050505b50505050505056fea2646970667358221220c8079dc91ae172b778b46a71422e9a6032338c1e29c647533663f625d9d57c2364736f6c63430008180033",
  "linkReferences": {},
  "deployedLinkReferences": {}
}