{
  "_format": "hh-sol-artifact-1",
  "contractName": "Share",
  "sourceName": "contracts/Share.sol",
  "abi": [
    {
      "inputs": [
        {
          "internalType": "address",
          "name": "user",
          "type": "address"
        },
        {
          "internalType": "string",
          "name": "file",
          "type": "string"
        }
      ],
      "name": "deleteFile",
      "outputs": [],
      "stateMutability": "nonpayable",
      "type": "function"
    },
    {
      "inputs": [
        {
          "internalType": "address",
          "name": "user",
          "type": "address"
        }
      ],
      "name": "getFiles",
      "outputs": [
        {
          "internalType": "string[]",
          "name": "",
          "type": "string[]"
        }
      ],
      "stateMutability": "view",
      "type": "function"
    },
    {
      "inputs": [
        {
          "internalType": "address",
          "name": "user",
          "type": "address"
        },
        {
          "internalType": "string",
          "name": "data",
          "type": "string"
        }
      ],
      "name": "shareFile",
      "outputs": [],
      "stateMutability": "nonpayable",
      "type": "function"
    }
  ],
  "bytecode": "0x608060405234801561001057600080fd5b50610eb9806100206000396000f3fe608060405234801561001057600080fd5b50600436106100415760003560e01c8063101f510614610046578063433bf37b14610062578063dfa36d5b14610092575b600080fd5b610060600480360381019061005b9190610882565b6100ae565b005b61007c600480360381019061007791906108de565b6103ea565b6040516100899190610a4c565b60405180910390f35b6100ac60048036038101906100a79190610882565b61053e565b005b60008060003373ffffffffffffffffffffffffffffffffffffffff1673ffffffffffffffffffffffffffffffffffffffff16815260200190815260200160002060008473ffffffffffffffffffffffffffffffffffffffff1673ffffffffffffffffffffffffffffffffffffffff168152602001908152602001600020805480602002602001604051908101604052809291908181526020016000905b828210156101f757838290600052602060002001805461016a90610a9d565b80601f016020809104026020016040519081016040528092919081815260200182805461019690610a9d565b80156101e35780601f106101b8576101008083540402835291602001916101e3565b820191906000526020600020905b8154815290600101906020018083116101c657829003601f168201915b50505050508152602001906001019061014b565b50505050905060006001825161020d9190610b07565b67ffffffffffffffff81111561022657610225610757565b5b60405190808252806020026020018201604052801561025957816020015b60608152602001906001900390816102445790505b5090506000805b83518110156103525783818151811061027c5761027b610b3b565b5b60200260200101515185511480156102f957508381815181106102a2576102a1610b3b565b5b60200260200101516040516020016102ba9190610ba6565b60405160208183030381529060405280519060200120856040516020016102e19190610ba6565b60405160208183030381529060405280519060200120145b610345578381815181106103105761030f610b3b565b5b602002602001015183838151811061032b5761032a610b3b565b5b6020026020010181905250818061034190610bbd565b9250505b8080600101915050610260565b50816000803373ffffffffffffffffffffffffffffffffffffffff1673ffffffffffffffffffffffffffffffffffffffff16815260200190815260200160002060008773ffffffffffffffffffffffffffffffffffffffff1673ffffffffffffffffffffffffffffffffffffffff16815260200190815260200160002090805190602001906103e29291906105f0565b505050505050565b60606000808373ffffffffffffffffffffffffffffffffffffffff1673ffffffffffffffffffffffffffffffffffffffff16815260200190815260200160002060003373ffffffffffffffffffffffffffffffffffffffff1673ffffffffffffffffffffffffffffffffffffffff168152602001908152602001600020805480602002602001604051908101604052809291908181526020016000905b828210156105335783829060005260206000200180546104a690610a9d565b80601f01602080910402602001604051908101604052809291908181526020018280546104d290610a9d565b801561051f5780601f106104f45761010080835404028352916020019161051f565b820191906000526020600020905b81548152906001019060200180831161050257829003601f168201915b505050505081526020019060010190610487565b505050509050919050565b6000803373ffffffffffffffffffffffffffffffffffffffff1673ffffffffffffffffffffffffffffffffffffffff16815260200190815260200160002060008373ffffffffffffffffffffffffffffffffffffffff1673ffffffffffffffffffffffffffffffffffffffff168152602001908152602001600020819080600181540180825580915050600190039060005260206000200160009091909190915090816105eb9190610db1565b505050565b828054828255906000526020600020908101928215610638579160200282015b828111156106375782518290816106279190610db1565b5091602001919060010190610610565b5b5090506106459190610649565b5090565b5b808211156106695760008181610660919061066d565b5060010161064a565b5090565b50805461067990610a9d565b6000825580601f1061068b57506106aa565b601f0160209004906000526020600020908101906106a991906106ad565b5b50565b5b808211156106c65760008160009055506001016106ae565b5090565b6000604051905090565b600080fd5b600080fd5b600073ffffffffffffffffffffffffffffffffffffffff82169050919050565b6000610709826106de565b9050919050565b610719816106fe565b811461072457600080fd5b50565b60008135905061073681610710565b92915050565b600080fd5b600080fd5b6000601f19601f8301169050919050565b7f4e487b7100000000000000000000000000000000000000000000000000000000600052604160045260246000fd5b61078f82610746565b810181811067ffffffffffffffff821117156107ae576107ad610757565b5b80604052505050565b60006107c16106ca565b90506107cd8282610786565b919050565b600067ffffffffffffffff8211156107ed576107ec610757565b5b6107f682610746565b9050602081019050919050565b82818337600083830152505050565b6000610825610820846107d2565b6107b7565b90508281526020810184848401111561084157610840610741565b5b61084c848285610803565b509392505050565b600082601f8301126108695761086861073c565b5b8135610879848260208601610812565b91505092915050565b60008060408385031215610899576108986106d4565b5b60006108a785828601610727565b925050602083013567ffffffffffffffff8111156108c8576108c76106d9565b5b6108d485828601610854565b9150509250929050565b6000602082840312156108f4576108f36106d4565b5b600061090284828501610727565b91505092915050565b600081519050919050565b600082825260208201905092915050565b6000819050602082019050919050565b600081519050919050565b600082825260208201905092915050565b60005b83811015610971578082015181840152602081019050610956565b60008484015250505050565b600061098882610937565b6109928185610942565b93506109a2818560208601610953565b6109ab81610746565b840191505092915050565b60006109c2838361097d565b905092915050565b6000602082019050919050565b60006109e28261090b565b6109ec8185610916565b9350836020820285016109fe85610927565b8060005b85811015610a3a5784840389528151610a1b85826109b6565b9450610a26836109ca565b925060208a01995050600181019050610a02565b50829750879550505050505092915050565b60006020820190508181036000830152610a6681846109d7565b905092915050565b7f4e487b7100000000000000000000000000000000000000000000000000000000600052602260045260246000fd5b60006002820490506001821680610ab557607f821691505b602082108103610ac857610ac7610a6e565b5b50919050565b6000819050919050565b7f4e487b7100000000000000000000000000000000000000000000000000000000600052601160045260246000fd5b6000610b1282610ace565b9150610b1d83610ace565b9250828203905081811115610b3557610b34610ad8565b5b92915050565b7f4e487b7100000000000000000000000000000000000000000000000000000000600052603260045260246000fd5b600081905092915050565b6000610b8082610937565b610b8a8185610b6a565b9350610b9a818560208601610953565b80840191505092915050565b6000610bb28284610b75565b915081905092915050565b6000610bc882610ace565b91507fffffffffffffffffffffffffffffffffffffffffffffffffffffffffffffffff8203610bfa57610bf9610ad8565b5b600182019050919050565b60008190508160005260206000209050919050565b60006020601f8301049050919050565b600082821b905092915050565b600060088302610c677fffffffffffffffffffffffffffffffffffffffffffffffffffffffffffffffff82610c2a565b610c718683610c2a565b95508019841693508086168417925050509392505050565b6000819050919050565b6000610cae610ca9610ca484610ace565b610c89565b610ace565b9050919050565b6000819050919050565b610cc883610c93565b610cdc610cd482610cb5565b848454610c37565b825550505050565b600090565b610cf1610ce4565b610cfc818484610cbf565b505050565b5b81811015610d2057610d15600082610ce9565b600181019050610d02565b5050565b601f821115610d6557610d3681610c05565b610d3f84610c1a565b81016020851015610d4e578190505b610d62610d5a85610c1a565b830182610d01565b50505b505050565b600082821c905092915050565b6000610d8860001984600802610d6a565b1980831691505092915050565b6000610da18383610d77565b9150826002028217905092915050565b610dba82610937565b67ffffffffffffffff811115610dd357610dd2610757565b5b610ddd8254610a9d565b610de8828285610d24565b600060209050601f831160018114610e1b5760008415610e09578287015190505b610e138582610d95565b865550610e7b565b601f198416610e2986610c05565b60005b82811015610e5157848901518255600182019150602085019450602081019050610e2c565b86831015610e6e5784890151610e6a601f891682610d77565b8355505b6001600288020188555050505b50505050505056fea264697066735822122011db1acda0a98a0910a8298b7675aaff0a44e47d700c3541a69ae1feee013e2364736f6c63430008180033",
  "linkReferences": {},
  "deployedLinkReferences": {}
}