{
  "_format": "hh-sol-artifact-1",
  "contractName": "Share",
  "sourceName": "contracts/Share.sol",
  "abi": [
    {
      "inputs": [
        {
          "internalType": "address",
          "name": "user",
          "type": "address"
        },
        {
          "internalType": "string",
          "name": "fileHash",
          "type": "string"
        }
      ],
      "name": "deleteFile",
      "outputs": [],
      "stateMutability": "nonpayable",
      "type": "function"
    },
    {
      "inputs": [
        {
          "internalType": "address",
          "name": "user",
          "type": "address"
        }
      ],
      "name": "getFiles",
      "outputs": [
        {
          "components": [
            {
              "internalType": "string",
              "name": "name",
              "type": "string"
            },
            {
              "internalType": "string",
              "name": "IpfsHash",
              "type": "string"
            }
          ],
          "internalType": "struct Share.File[]",
          "name": "",
          "type": "tuple[]"
        }
      ],
      "stateMutability": "view",
      "type": "function"
    },
    {
      "inputs": [
        {
          "internalType": "address",
          "name": "user",
          "type": "address"
        },
        {
          "internalType": "string",
          "name": "name",
          "type": "string"
        },
        {
          "internalType": "string",
          "name": "hash",
          "type": "string"
        }
      ],
      "name": "shareFile",
      "outputs": [],
      "stateMutability": "nonpayable",
      "type": "function"
    },
    {
      "inputs": [
        {
          "internalType": "address",
          "name": "user",
          "type": "address"
        }
      ],
      "name": "sharedFiles",
      "outputs": [
        {
          "components": [
            {
              "internalType": "string",
              "name": "name",
              "type": "string"
            },
            {
              "internalType": "string",
              "name": "IpfsHash",
              "type": "string"
            }
          ],
          "internalType": "struct Share.File[]",
          "name": "",
          "type": "tuple[]"
        }
      ],
      "stateMutability": "view",
      "type": "function"
    }
  ],
  "bytecode": "0x608060405234801561001057600080fd5b506113d6806100206000396000f3fe608060405234801561001057600080fd5b506004361061004c5760003560e01c8063101f510614610051578063433bf37b1461006d578063d72c15221461009d578063f76a961a146100cd575b600080fd5b61006b60048036038101906100669190610b51565b6100e9565b005b61008760048036038101906100829190610bad565b61039b565b6040516100949190610d5f565b60405180910390f35b6100b760048036038101906100b29190610bad565b610599565b6040516100c49190610d5f565b60405180910390f35b6100e760048036038101906100e29190610d81565b610797565b005b60008060003373ffffffffffffffffffffffffffffffffffffffff1673ffffffffffffffffffffffffffffffffffffffff16815260200190815260200160002060008473ffffffffffffffffffffffffffffffffffffffff1673ffffffffffffffffffffffffffffffffffffffff16815260200190815260200160002090506000805b82805490508110156102405782818154811061018b5761018a610e0c565b5b906000526020600020906002020160010180546101a790610e6a565b9050845114801561022657508281815481106101c6576101c5610e0c565b5b90600052602060002090600202016001016040516020016101e79190610f3e565b604051602081830303815290604052805190602001208460405160200161020e9190610f86565b60405160208183030381529060405280519060200120145b1561023357809150610240565b808060010191505061016c565b5081600183805490506102539190610fd6565b8154811061026457610263610e0c565b5b906000526020600020906002020182828154811061028557610284610e0c565b5b9060005260206000209060020201600082018160000190816102a791906111b7565b50600182018160010190816102bc91906111b7565b50905050818054806102d1576102d061129f565b5b6001900381819060005260206000209060020201600080820160006102f69190610883565b6001820160006103069190610883565b50509055816000803373ffffffffffffffffffffffffffffffffffffffff1673ffffffffffffffffffffffffffffffffffffffff16815260200190815260200160002060008673ffffffffffffffffffffffffffffffffffffffff1673ffffffffffffffffffffffffffffffffffffffff1681526020019081526020016000209080546103949291906108c3565b5050505050565b60606000808373ffffffffffffffffffffffffffffffffffffffff1673ffffffffffffffffffffffffffffffffffffffff16815260200190815260200160002060003373ffffffffffffffffffffffffffffffffffffffff1673ffffffffffffffffffffffffffffffffffffffff168152602001908152602001600020805480602002602001604051908101604052809291908181526020016000905b8282101561058e578382906000526020600020906002020160405180604001604052908160008201805461046b90610e6a565b80601f016020809104026020016040519081016040528092919081815260200182805461049790610e6a565b80156104e45780601f106104b9576101008083540402835291602001916104e4565b820191906000526020600020905b8154815290600101906020018083116104c757829003601f168201915b505050505081526020016001820180546104fd90610e6a565b80601f016020809104026020016040519081016040528092919081815260200182805461052990610e6a565b80156105765780601f1061054b57610100808354040283529160200191610576565b820191906000526020600020905b81548152906001019060200180831161055957829003601f168201915b50505050508152505081526020019060010190610438565b505050509050919050565b60606000803373ffffffffffffffffffffffffffffffffffffffff1673ffffffffffffffffffffffffffffffffffffffff16815260200190815260200160002060008373ffffffffffffffffffffffffffffffffffffffff1673ffffffffffffffffffffffffffffffffffffffff168152602001908152602001600020805480602002602001604051908101604052809291908181526020016000905b8282101561078c578382906000526020600020906002020160405180604001604052908160008201805461066990610e6a565b80601f016020809104026020016040519081016040528092919081815260200182805461069590610e6a565b80156106e25780601f106106b7576101008083540402835291602001916106e2565b820191906000526020600020905b8154815290600101906020018083116106c557829003601f168201915b505050505081526020016001820180546106fb90610e6a565b80601f016020809104026020016040519081016040528092919081815260200182805461072790610e6a565b80156107745780601f1061074957610100808354040283529160200191610774565b820191906000526020600020905b81548152906001019060200180831161075757829003601f168201915b50505050508152505081526020019060010190610636565b505050509050919050565b6000803373ffffffffffffffffffffffffffffffffffffffff1673ffffffffffffffffffffffffffffffffffffffff16815260200190815260200160002060008473ffffffffffffffffffffffffffffffffffffffff1673ffffffffffffffffffffffffffffffffffffffff1681526020019081526020016000206040518060400160405280848152602001838152509080600181540180825580915050600190039060005260206000209060020201600090919091909150600082015181600001908161086591906112ce565b50602082015181600101908161087b91906112ce565b505050505050565b50805461088f90610e6a565b6000825580601f106108a157506108c0565b601f0160209004906000526020600020908101906108bf9190610945565b5b50565b8280548282559060005260206000209060020281019282156109345760005260206000209160020282015b828111156109335782826000820181600001908161090c91906111b7565b506001820181600101908161092191906111b7565b505050916002019190600201906108ee565b5b5090506109419190610962565b5090565b5b8082111561095e576000816000905550600101610946565b5090565b5b80821115610995576000808201600061097c9190610883565b60018201600061098c9190610883565b50600201610963565b5090565b6000604051905090565b600080fd5b600080fd5b600073ffffffffffffffffffffffffffffffffffffffff82169050919050565b60006109d8826109ad565b9050919050565b6109e8816109cd565b81146109f357600080fd5b50565b600081359050610a05816109df565b92915050565b600080fd5b600080fd5b6000601f19601f8301169050919050565b7f4e487b7100000000000000000000000000000000000000000000000000000000600052604160045260246000fd5b610a5e82610a15565b810181811067ffffffffffffffff82111715610a7d57610a7c610a26565b5b80604052505050565b6000610a90610999565b9050610a9c8282610a55565b919050565b600067ffffffffffffffff821115610abc57610abb610a26565b5b610ac582610a15565b9050602081019050919050565b82818337600083830152505050565b6000610af4610aef84610aa1565b610a86565b905082815260208101848484011115610b1057610b0f610a10565b5b610b1b848285610ad2565b509392505050565b600082601f830112610b3857610b37610a0b565b5b8135610b48848260208601610ae1565b91505092915050565b60008060408385031215610b6857610b676109a3565b5b6000610b76858286016109f6565b925050602083013567ffffffffffffffff811115610b9757610b966109a8565b5b610ba385828601610b23565b9150509250929050565b600060208284031215610bc357610bc26109a3565b5b6000610bd1848285016109f6565b91505092915050565b600081519050919050565b600082825260208201905092915050565b6000819050602082019050919050565b600081519050919050565b600082825260208201905092915050565b60005b83811015610c40578082015181840152602081019050610c25565b60008484015250505050565b6000610c5782610c06565b610c618185610c11565b9350610c71818560208601610c22565b610c7a81610a15565b840191505092915050565b60006040830160008301518482036000860152610ca28282610c4c565b91505060208301518482036020860152610cbc8282610c4c565b9150508091505092915050565b6000610cd58383610c85565b905092915050565b6000602082019050919050565b6000610cf582610bda565b610cff8185610be5565b935083602082028501610d1185610bf6565b8060005b85811015610d4d5784840389528151610d2e8582610cc9565b9450610d3983610cdd565b925060208a01995050600181019050610d15565b50829750879550505050505092915050565b60006020820190508181036000830152610d798184610cea565b905092915050565b600080600060608486031215610d9a57610d996109a3565b5b6000610da8868287016109f6565b935050602084013567ffffffffffffffff811115610dc957610dc86109a8565b5b610dd586828701610b23565b925050604084013567ffffffffffffffff811115610df657610df56109a8565b5b610e0286828701610b23565b9150509250925092565b7f4e487b7100000000000000000000000000000000000000000000000000000000600052603260045260246000fd5b7f4e487b7100000000000000000000000000000000000000000000000000000000600052602260045260246000fd5b60006002820490506001821680610e8257607f821691505b602082108103610e9557610e94610e3b565b5b50919050565b600081905092915050565b60008190508160005260206000209050919050565b60008154610ec881610e6a565b610ed28186610e9b565b94506001821660008114610eed5760018114610f0257610f35565b60ff1983168652811515820286019350610f35565b610f0b85610ea6565b60005b83811015610f2d57815481890152600182019150602081019050610f0e565b838801955050505b50505092915050565b6000610f4a8284610ebb565b915081905092915050565b6000610f6082610c06565b610f6a8185610e9b565b9350610f7a818560208601610c22565b80840191505092915050565b6000610f928284610f55565b915081905092915050565b6000819050919050565b7f4e487b7100000000000000000000000000000000000000000000000000000000600052601160045260246000fd5b6000610fe182610f9d565b9150610fec83610f9d565b925082820390508181111561100457611003610fa7565b5b92915050565b60008154905061101981610e6a565b9050919050565b60006020601f8301049050919050565b600082821b905092915050565b60006008830261106d7fffffffffffffffffffffffffffffffffffffffffffffffffffffffffffffffff82611030565b6110778683611030565b95508019841693508086168417925050509392505050565b6000819050919050565b60006110b46110af6110aa84610f9d565b61108f565b610f9d565b9050919050565b6000819050919050565b6110ce83611099565b6110e26110da826110bb565b84845461103d565b825550505050565b600090565b6110f76110ea565b6111028184846110c5565b505050565b5b818110156111265761111b6000826110ef565b600181019050611108565b5050565b601f82111561116b5761113c81610ea6565b61114584611020565b81016020851015611154578190505b61116861116085611020565b830182611107565b50505b505050565b600082821c905092915050565b600061118e60001984600802611170565b1980831691505092915050565b60006111a7838361117d565b9150826002028217905092915050565b8181036111c557505061129d565b6111ce8261100a565b67ffffffffffffffff8111156111e7576111e6610a26565b5b6111f18254610e6a565b6111fc82828561112a565b6000601f83116001811461122b5760008415611219578287015490505b611223858261119b565b865550611296565b601f19841661123987610ea6565b965061124486610ea6565b60005b8281101561126c57848901548255600182019150600185019450602081019050611247565b868310156112895784890154611285601f89168261117d565b8355505b6001600288020188555050505b5050505050505b565b7f4e487b7100000000000000000000000000000000000000000000000000000000600052603160045260246000fd5b6112d782610c06565b67ffffffffffffffff8111156112f0576112ef610a26565b5b6112fa8254610e6a565b61130582828561112a565b600060209050601f8311600181146113385760008415611326578287015190505b611330858261119b565b865550611398565b601f19841661134686610ea6565b60005b8281101561136e57848901518255600182019150602085019450602081019050611349565b8683101561138b5784890151611387601f89168261117d565b8355505b6001600288020188555050505b50505050505056fea264697066735822122040f037318afaa053272ab1161cbb539138cb25e3834548a32b35d78413b2bc8564736f6c63430008180033",
  "linkReferences": {},
  "deployedLinkReferences": {}
}