{
  "_format": "hh-sol-artifact-1",
  "contractName": "Share",
  "sourceName": "contracts/Share.sol",
  "abi": [
    {
      "inputs": [
        {
          "internalType": "address",
          "name": "user",
          "type": "address"
        },
        {
          "internalType": "string",
          "name": "fileHash",
          "type": "string"
        }
      ],
      "name": "deleteFile",
      "outputs": [],
      "stateMutability": "nonpayable",
      "type": "function"
    },
    {
      "inputs": [
        {
          "internalType": "address",
          "name": "user",
          "type": "address"
        }
      ],
      "name": "getFiles",
      "outputs": [
        {
          "components": [
            {
              "internalType": "string",
              "name": "name",
              "type": "string"
            },
            {
              "internalType": "string",
              "name": "IpfsHash",
              "type": "string"
            }
          ],
          "internalType": "struct Share.File[]",
          "name": "",
          "type": "tuple[]"
        }
      ],
      "stateMutability": "view",
      "type": "function"
    },
    {
      "inputs": [
        {
          "internalType": "address",
          "name": "user",
          "type": "address"
        },
        {
          "internalType": "string",
          "name": "name",
          "type": "string"
        },
        {
          "internalType": "string",
          "name": "hash",
          "type": "string"
        }
      ],
      "name": "shareFile",
      "outputs": [],
      "stateMutability": "nonpayable",
      "type": "function"
    }
  ],
  "bytecode": "0x608060405234801561001057600080fd5b5061119d806100206000396000f3fe608060405234801561001057600080fd5b50600436106100415760003560e01c8063101f510614610046578063433bf37b14610062578063f76a961a14610092575b600080fd5b610060600480360381019061005b9190610918565b6100ae565b005b61007c60048036038101906100779190610974565b610360565b6040516100899190610b26565b60405180910390f35b6100ac60048036038101906100a79190610b48565b61055e565b005b60008060003373ffffffffffffffffffffffffffffffffffffffff1673ffffffffffffffffffffffffffffffffffffffff16815260200190815260200160002060008473ffffffffffffffffffffffffffffffffffffffff1673ffffffffffffffffffffffffffffffffffffffff16815260200190815260200160002090506000805b8280549050811015610205578281815481106101505761014f610bd3565b5b9060005260206000209060020201600101805461016c90610c31565b905084511480156101eb575082818154811061018b5761018a610bd3565b5b90600052602060002090600202016001016040516020016101ac9190610d05565b60405160208183030381529060405280519060200120846040516020016101d39190610d4d565b60405160208183030381529060405280519060200120145b156101f857809150610205565b8080600101915050610131565b5081600183805490506102189190610d9d565b8154811061022957610228610bd3565b5b906000526020600020906002020182828154811061024a57610249610bd3565b5b90600052602060002090600202016000820181600001908161026c9190610f7e565b50600182018160010190816102819190610f7e565b509050508180548061029657610295611066565b5b6001900381819060005260206000209060020201600080820160006102bb919061064a565b6001820160006102cb919061064a565b50509055816000803373ffffffffffffffffffffffffffffffffffffffff1673ffffffffffffffffffffffffffffffffffffffff16815260200190815260200160002060008673ffffffffffffffffffffffffffffffffffffffff1673ffffffffffffffffffffffffffffffffffffffff16815260200190815260200160002090805461035992919061068a565b5050505050565b60606000808373ffffffffffffffffffffffffffffffffffffffff1673ffffffffffffffffffffffffffffffffffffffff16815260200190815260200160002060003373ffffffffffffffffffffffffffffffffffffffff1673ffffffffffffffffffffffffffffffffffffffff168152602001908152602001600020805480602002602001604051908101604052809291908181526020016000905b82821015610553578382906000526020600020906002020160405180604001604052908160008201805461043090610c31565b80601f016020809104026020016040519081016040528092919081815260200182805461045c90610c31565b80156104a95780601f1061047e576101008083540402835291602001916104a9565b820191906000526020600020905b81548152906001019060200180831161048c57829003601f168201915b505050505081526020016001820180546104c290610c31565b80601f01602080910402602001604051908101604052809291908181526020018280546104ee90610c31565b801561053b5780601f106105105761010080835404028352916020019161053b565b820191906000526020600020905b81548152906001019060200180831161051e57829003601f168201915b505050505081525050815260200190600101906103fd565b505050509050919050565b6000803373ffffffffffffffffffffffffffffffffffffffff1673ffffffffffffffffffffffffffffffffffffffff16815260200190815260200160002060008473ffffffffffffffffffffffffffffffffffffffff1673ffffffffffffffffffffffffffffffffffffffff1681526020019081526020016000206040518060400160405280848152602001838152509080600181540180825580915050600190039060005260206000209060020201600090919091909150600082015181600001908161062c9190611095565b5060208201518160010190816106429190611095565b505050505050565b50805461065690610c31565b6000825580601f106106685750610687565b601f016020900490600052602060002090810190610686919061070c565b5b50565b8280548282559060005260206000209060020281019282156106fb5760005260206000209160020282015b828111156106fa578282600082018160000190816106d39190610f7e565b50600182018160010190816106e89190610f7e565b505050916002019190600201906106b5565b5b5090506107089190610729565b5090565b5b8082111561072557600081600090555060010161070d565b5090565b5b8082111561075c5760008082016000610743919061064a565b600182016000610753919061064a565b5060020161072a565b5090565b6000604051905090565b600080fd5b600080fd5b600073ffffffffffffffffffffffffffffffffffffffff82169050919050565b600061079f82610774565b9050919050565b6107af81610794565b81146107ba57600080fd5b50565b6000813590506107cc816107a6565b92915050565b600080fd5b600080fd5b6000601f19601f8301169050919050565b7f4e487b7100000000000000000000000000000000000000000000000000000000600052604160045260246000fd5b610825826107dc565b810181811067ffffffffffffffff82111715610844576108436107ed565b5b80604052505050565b6000610857610760565b9050610863828261081c565b919050565b600067ffffffffffffffff821115610883576108826107ed565b5b61088c826107dc565b9050602081019050919050565b82818337600083830152505050565b60006108bb6108b684610868565b61084d565b9050828152602081018484840111156108d7576108d66107d7565b5b6108e2848285610899565b509392505050565b600082601f8301126108ff576108fe6107d2565b5b813561090f8482602086016108a8565b91505092915050565b6000806040838503121561092f5761092e61076a565b5b600061093d858286016107bd565b925050602083013567ffffffffffffffff81111561095e5761095d61076f565b5b61096a858286016108ea565b9150509250929050565b60006020828403121561098a5761098961076a565b5b6000610998848285016107bd565b91505092915050565b600081519050919050565b600082825260208201905092915050565b6000819050602082019050919050565b600081519050919050565b600082825260208201905092915050565b60005b83811015610a075780820151818401526020810190506109ec565b60008484015250505050565b6000610a1e826109cd565b610a2881856109d8565b9350610a388185602086016109e9565b610a41816107dc565b840191505092915050565b60006040830160008301518482036000860152610a698282610a13565b91505060208301518482036020860152610a838282610a13565b9150508091505092915050565b6000610a9c8383610a4c565b905092915050565b6000602082019050919050565b6000610abc826109a1565b610ac681856109ac565b935083602082028501610ad8856109bd565b8060005b85811015610b145784840389528151610af58582610a90565b9450610b0083610aa4565b925060208a01995050600181019050610adc565b50829750879550505050505092915050565b60006020820190508181036000830152610b408184610ab1565b905092915050565b600080600060608486031215610b6157610b6061076a565b5b6000610b6f868287016107bd565b935050602084013567ffffffffffffffff811115610b9057610b8f61076f565b5b610b9c868287016108ea565b925050604084013567ffffffffffffffff811115610bbd57610bbc61076f565b5b610bc9868287016108ea565b9150509250925092565b7f4e487b7100000000000000000000000000000000000000000000000000000000600052603260045260246000fd5b7f4e487b7100000000000000000000000000000000000000000000000000000000600052602260045260246000fd5b60006002820490506001821680610c4957607f821691505b602082108103610c5c57610c5b610c02565b5b50919050565b600081905092915050565b60008190508160005260206000209050919050565b60008154610c8f81610c31565b610c998186610c62565b94506001821660008114610cb45760018114610cc957610cfc565b60ff1983168652811515820286019350610cfc565b610cd285610c6d565b60005b83811015610cf457815481890152600182019150602081019050610cd5565b838801955050505b50505092915050565b6000610d118284610c82565b915081905092915050565b6000610d27826109cd565b610d318185610c62565b9350610d418185602086016109e9565b80840191505092915050565b6000610d598284610d1c565b915081905092915050565b6000819050919050565b7f4e487b7100000000000000000000000000000000000000000000000000000000600052601160045260246000fd5b6000610da882610d64565b9150610db383610d64565b9250828203905081811115610dcb57610dca610d6e565b5b92915050565b600081549050610de081610c31565b9050919050565b60006020601f8301049050919050565b600082821b905092915050565b600060088302610e347fffffffffffffffffffffffffffffffffffffffffffffffffffffffffffffffff82610df7565b610e3e8683610df7565b95508019841693508086168417925050509392505050565b6000819050919050565b6000610e7b610e76610e7184610d64565b610e56565b610d64565b9050919050565b6000819050919050565b610e9583610e60565b610ea9610ea182610e82565b848454610e04565b825550505050565b600090565b610ebe610eb1565b610ec9818484610e8c565b505050565b5b81811015610eed57610ee2600082610eb6565b600181019050610ecf565b5050565b601f821115610f3257610f0381610c6d565b610f0c84610de7565b81016020851015610f1b578190505b610f2f610f2785610de7565b830182610ece565b50505b505050565b600082821c905092915050565b6000610f5560001984600802610f37565b1980831691505092915050565b6000610f6e8383610f44565b9150826002028217905092915050565b818103610f8c575050611064565b610f9582610dd1565b67ffffffffffffffff811115610fae57610fad6107ed565b5b610fb88254610c31565b610fc3828285610ef1565b6000601f831160018114610ff25760008415610fe0578287015490505b610fea8582610f62565b86555061105d565b601f19841661100087610c6d565b965061100b86610c6d565b60005b828110156110335784890154825560018201915060018501945060208101905061100e565b86831015611050578489015461104c601f891682610f44565b8355505b6001600288020188555050505b5050505050505b565b7f4e487b7100000000000000000000000000000000000000000000000000000000600052603160045260246000fd5b61109e826109cd565b67ffffffffffffffff8111156110b7576110b66107ed565b5b6110c18254610c31565b6110cc828285610ef1565b600060209050601f8311600181146110ff57600084156110ed578287015190505b6110f78582610f62565b86555061115f565b601f19841661110d86610c6d565b60005b8281101561113557848901518255600182019150602085019450602081019050611110565b86831015611152578489015161114e601f891682610f44565b8355505b6001600288020188555050505b50505050505056fea2646970667358221220afeb40057a4cf66982f649ebd03bcb8ae70b14f27c5bb6d1ae9ca7e01aeb4ef064736f6c63430008180033",
  "linkReferences": {},
  "deployedLinkReferences": {}
}